:100000000C9434000C943E000C943E000C943E0082
:100010000C943E000C943E000C943E000C943E0068
:100020000C943E000C943E000C943E000C943E0058
:100030000C943E000C943E000C943E000C943E0048
:100040000C943E000C943E000C943E000C943E0038
:100050000C943E000C943E000C943E000C943E0028
:100060000C943E000C943E0011241FBECFEFD8E04C
:10007000DEBFCDBF0E9484000C949F000C94000052
:10008000A6E8B0E08D919C91119782599940E8E8DB
:10009000F0E0918380832FEF89E698E12150804042
:1000A0009040E1F700C000008D919C91119784571A
:1000B0009E40918380832FEF89E698E12150804014
:1000C0009040E1F700C000008D919C9111978259FA
:1000D0009940918380832FEF89E698E121508040F9
:1000E0009040E1F700C000008D919C91805B9440AE
:1000F000918380832FEF89E698E1215080409040E2
:10010000E1F700C00000089580918000826C809328
:100110008000809181008A618093810080E49CE965
:10012000909387008093860082E999E090938900FC
:10013000809388008FEF84B90E944000FDCFF8942F
:02014000FFCFEF
:00000001FF
